:1000000012C021C020C01FC01EC01DC01CC01BC00C
:100010001AC02FC118C017C016C015C014C013C015
:1000200012C011C010C011241FBECFE5D4E0DEBF46
:10003000CDBF10E0A0E6B0E001C01D92A93AB10723
:10004000E1F728D13BC1DCCFC29A87B38C6287BB72
:1000500085E58DB981E08EB9089590E08F73907039
:10006000982F882770E0862B972BC2989FB9779B93
:10007000FECF8FB9779BFECFC29A089570E070646F
:1000800090E08F739070982F8827682B792BC298F7
:100090007FB9779BFECF6FB9779BFECFC29A089549
:1000A00090E083709070982F88279295990F907E9A
:1000B000906870E061707070762F66277295707F1F
:1000C000862B972B5F70842B952BC2989FB9779BBB
:1000D000FECF8FB9779BFECFC29A089584B38C7FF1
:1000E00084BB86E886B982E087B9369A0895349B46
:1000F000FECF94B125B187B18F70382F325063B3E2
:100100008150833008F080E08E5F87B9369A62951F
:100110006695677060956170522F40E0892F90E07E
:10012000482B592B440F551F440F551F832FB8DF01
:10013000089511BA87B3836087BB84B3836084BB9F
:1001400008958F929F92AF92BF92CF92DF92EF92DB
:10015000FF920F931F93CF93DF93C0E6D0E0CC24A0
:1001600028E0B22E95E0992E88248A9488EFF82E04
:10017000FB0C2C2D2F5F8C2D837085BBF89498B3CE
:100180008C2D8695869583709C7F892B88BB78946F
:10019000892D8A95F1F730B382E0C80E822F8370E3
:1001A00085BBF89488B32695269523708C7F282BE1
:1001B00028BB7894892D8A95F1F720B38881432F45
:1001C0004095E82EE094E422E222D32ED822922F0A
:1001D0009095D922182F122B109513238223842354
:1001E000182BAD2CAE288A2D812B09F101E0802F30
:1001F000812329F0EF2DF0E0E859FF4F8082802F16
:100200008E2139F0EF2DF0E0E859FF4F8F2D6081FE
:1002100024DF802F8D2139F0EF2DF0E0E859FF4FDA
:100220008F2D60812BDFF394000FFB1401F7888181
:100230008A25899388E0B80E80E1C81609F096CF28
:10024000EBE6F0E08081882311F0815080833196C5
:1002500080E0E83AF807B1F7DF91CF911F910F9155
:10026000FF90EF90DF90CF90BF90AF909F908F90D6
:1002700008951F920F920FB60F9211248F9381E071
:100280008093A80083E882BF8F910F900FBE0F90DC
:100290001F901895D9DE22DF4CDF83E083BF83E80F
:1002A00082BF89B7816089BF78948091A800882334
:1002B000E1F31092A80045DF1ADFF7CFF894FFCFE3
:00000001FF
